{
  "_format": "hh-sol-artifact-1",
  "contractName": "LiquidStaking",
  "sourceName": "contracts/LiquidStaking.sol",
  "abi": [
    {
      "inputs": [
        {
          "internalType": "address",
          "name": "_stPEAQ",
          "type": "address"
        }
      ],
      "stateMutability": "nonpayable",
      "type": "constructor"
    },
    {
      "inputs": [],
      "name": "EnforcedPause",
      "type": "error"
    },
    {
      "inputs": [],
      "name": "ExpectedPause",
      "type": "error"
    },
    {
      "inputs": [
        {
          "internalType": "address",
          "name": "owner",
          "type": "address"
        }
      ],
      "name": "OwnableInvalidOwner",
      "type": "error"
    },
    {
      "inputs": [
        {
          "internalType": "address",
          "name": "account",
          "type": "address"
        }
      ],
      "name": "OwnableUnauthorizedAccount",
      "type": "error"
    },
    {
      "inputs": [],
      "name": "ReentrancyGuardReentrantCall",
      "type": "error"
    },
    {
      "anonymous": false,
      "inputs": [
        {
          "indexed": true,
          "internalType": "address",
          "name": "collator",
          "type": "address"
        },
        {
          "indexed": false,
          "internalType": "bool",
          "name": "status",
          "type": "bool"
        }
      ],
      "name": "CollatorWhitelisted",
      "type": "event"
    },
    {
      "anonymous": false,
      "inputs": [],
      "name": "EmergencyModeActivated",
      "type": "event"
    },
    {
      "anonymous": false,
      "inputs": [
        {
          "indexed": true,
          "internalType": "address",
          "name": "user",
          "type": "address"
        },
        {
          "indexed": false,
          "internalType": "uint256",
          "name": "amount",
          "type": "uint256"
        }
      ],
      "name": "EmergencyWithdrawal",
      "type": "event"
    },
    {
      "anonymous": false,
      "inputs": [
        {
          "indexed": true,
          "internalType": "address",
          "name": "oldCollector",
          "type": "address"
        },
        {
          "indexed": true,
          "internalType": "address",
          "name": "newCollector",
          "type": "address"
        }
      ],
      "name": "FeeCollectorUpdated",
      "type": "event"
    },
    {
      "anonymous": false,
      "inputs": [
        {
          "indexed": false,
          "internalType": "uint256",
          "name": "amount",
          "type": "uint256"
        },
        {
          "indexed": true,
          "internalType": "address",
          "name": "collector",
          "type": "address"
        }
      ],
      "name": "FeesCollected",
      "type": "event"
    },
    {
      "anonymous": false,
      "inputs": [
        {
          "indexed": false,
          "internalType": "uint256",
          "name": "date",
          "type": "uint256"
        },
        {
          "indexed": false,
          "internalType": "uint256",
          "name": "totalReward",
          "type": "uint256"
        }
      ],
      "name": "GlobalRewardLogged",
      "type": "event"
    },
    {
      "anonymous": false,
      "inputs": [
        {
          "indexed": true,
          "internalType": "address",
          "name": "previousOwner",
          "type": "address"
        },
        {
          "indexed": true,
          "internalType": "address",
          "name": "newOwner",
          "type": "address"
        }
      ],
      "name": "OwnershipTransferred",
      "type": "event"
    },
    {
      "anonymous": false,
      "inputs": [
        {
          "indexed": false,
          "internalType": "address",
          "name": "account",
          "type": "address"
        }
      ],
      "name": "Paused",
      "type": "event"
    },
    {
      "anonymous": false,
      "inputs": [
        {
          "indexed": false,
          "internalType": "uint256",
          "name": "oldFee",
          "type": "uint256"
        },
        {
          "indexed": false,
          "internalType": "uint256",
          "name": "newFee",
          "type": "uint256"
        },
        {
          "indexed": true,
          "internalType": "address",
          "name": "updatedBy",
          "type": "address"
        }
      ],
      "name": "ProtocolFeeUpdated",
      "type": "event"
    },
    {
      "anonymous": false,
      "inputs": [
        {
          "indexed": true,
          "internalType": "address",
          "name": "user",
          "type": "address"
        },
        {
          "indexed": false,
          "internalType": "uint256",
          "name": "amount",
          "type": "uint256"
        }
      ],
      "name": "Staked",
      "type": "event"
    },
    {
      "anonymous": false,
      "inputs": [
        {
          "indexed": true,
          "internalType": "address",
          "name": "collator",
          "type": "address"
        },
        {
          "indexed": false,
          "internalType": "uint256",
          "name": "amount",
          "type": "uint256"
        }
      ],
      "name": "StakedPEAQWithdrawn",
      "type": "event"
    },
    {
      "anonymous": false,
      "inputs": [
        {
          "indexed": false,
          "internalType": "uint256",
          "name": "newLimit",
          "type": "uint256"
        }
      ],
      "name": "StakingLimitUpdated",
      "type": "event"
    },
    {
      "anonymous": false,
      "inputs": [
        {
          "indexed": false,
          "internalType": "address",
          "name": "account",
          "type": "address"
        }
      ],
      "name": "Unpaused",
      "type": "event"
    },
    {
      "anonymous": false,
      "inputs": [
        {
          "indexed": true,
          "internalType": "address",
          "name": "user",
          "type": "address"
        },
        {
          "indexed": false,
          "internalType": "uint256",
          "name": "amount",
          "type": "uint256"
        }
      ],
      "name": "WithdrawalClaimed",
      "type": "event"
    },
    {
      "anonymous": false,
      "inputs": [
        {
          "indexed": false,
          "internalType": "uint256",
          "name": "oldDelay",
          "type": "uint256"
        },
        {
          "indexed": false,
          "internalType": "uint256",
          "name": "newDelay",
          "type": "uint256"
        }
      ],
      "name": "WithdrawalDelayUpdated",
      "type": "event"
    },
    {
      "anonymous": false,
      "inputs": [
        {
          "indexed": true,
          "internalType": "address",
          "name": "user",
          "type": "address"
        },
        {
          "indexed": false,
          "internalType": "uint256",
          "name": "amount",
          "type": "uint256"
        },
        {
          "indexed": false,
          "internalType": "uint256",
          "name": "unlockTime",
          "type": "uint256"
        }
      ],
      "name": "WithdrawalRequested",
      "type": "event"
    },
    {
      "inputs": [],
      "name": "MAX_FEE",
      "outputs": [
        {
          "internalType": "uint256",
          "name": "",
          "type": "uint256"
        }
      ],
      "stateMutability": "view",
      "type": "function"
    },
    {
      "inputs": [],
      "name": "activateEmergencyMode",
      "outputs": [],
      "stateMutability": "nonpayable",
      "type": "function"
    },
    {
      "inputs": [
        {
          "internalType": "uint256",
          "name": "index",
          "type": "uint256"
        }
      ],
      "name": "claimWithdrawal",
      "outputs": [],
      "stateMutability": "nonpayable",
      "type": "function"
    },
    {
      "inputs": [],
      "name": "deposit",
      "outputs": [],
      "stateMutability": "payable",
      "type": "function"
    },
    {
      "inputs": [],
      "name": "distributeRewards",
      "outputs": [],
      "stateMutability": "payable",
      "type": "function"
    },
    {
      "inputs": [],
      "name": "emergencyMode",
      "outputs": [
        {
          "internalType": "bool",
          "name": "",
          "type": "bool"
        }
      ],
      "stateMutability": "view",
      "type": "function"
    },
    {
      "inputs": [],
      "name": "emergencyWithdraw",
      "outputs": [],
      "stateMutability": "nonpayable",
      "type": "function"
    },
    {
      "inputs": [],
      "name": "feeCollector",
      "outputs": [
        {
          "internalType": "address",
          "name": "",
          "type": "address"
        }
      ],
      "stateMutability": "view",
      "type": "function"
    },
    {
      "inputs": [],
      "name": "getAvailablePEAQForDelegation",
      "outputs": [
        {
          "internalType": "uint256",
          "name": "",
          "type": "uint256"
        }
      ],
      "stateMutability": "view",
      "type": "function"
    },
    {
      "inputs": [],
      "name": "getExchangeRate",
      "outputs": [
        {
          "internalType": "uint256",
          "name": "",
          "type": "uint256"
        }
      ],
      "stateMutability": "view",
      "type": "function"
    },
    {
      "inputs": [],
      "name": "getMaxFee",
      "outputs": [
        {
          "internalType": "uint256",
          "name": "",
          "type": "uint256"
        }
      ],
      "stateMutability": "pure",
      "type": "function"
    },
    {
      "inputs": [],
      "name": "getPEAQWithCollators",
      "outputs": [
        {
          "internalType": "uint256",
          "name": "",
          "type": "uint256"
        }
      ],
      "stateMutability": "view",
      "type": "function"
    },
    {
      "inputs": [
        {
          "internalType": "address",
          "name": "account",
          "type": "address"
        }
      ],
      "name": "getStakedAmount",
      "outputs": [
        {
          "internalType": "uint256",
          "name": "",
          "type": "uint256"
        }
      ],
      "stateMutability": "view",
      "type": "function"
    },
    {
      "inputs": [],
      "name": "getTotalStaked",
      "outputs": [
        {
          "internalType": "uint256",
          "name": "",
          "type": "uint256"
        }
      ],
      "stateMutability": "view",
      "type": "function"
    },
    {
      "inputs": [
        {
          "internalType": "uint256",
          "name": "stPeaqAmount",
          "type": "uint256"
        }
      ],
      "name": "getWithdrawalAmount",
      "outputs": [
        {
          "internalType": "uint256",
          "name": "",
          "type": "uint256"
        }
      ],
      "stateMutability": "view",
      "type": "function"
    },
    {
      "inputs": [
        {
          "internalType": "address",
          "name": "user",
          "type": "address"
        }
      ],
      "name": "getWithdrawalRequests",
      "outputs": [
        {
          "components": [
            {
              "internalType": "uint256",
              "name": "amount",
              "type": "uint256"
            },
            {
              "internalType": "uint256",
              "name": "unlockTime",
              "type": "uint256"
            }
          ],
          "internalType": "struct LiquidStaking.WithdrawalRequest[]",
          "name": "",
          "type": "tuple[]"
        }
      ],
      "stateMutability": "view",
      "type": "function"
    },
    {
      "inputs": [
        {
          "internalType": "address",
          "name": "user",
          "type": "address"
        },
        {
          "internalType": "uint256",
          "name": "index",
          "type": "uint256"
        }
      ],
      "name": "isWithdrawalClaimable",
      "outputs": [
        {
          "internalType": "bool",
          "name": "",
          "type": "bool"
        }
      ],
      "stateMutability": "view",
      "type": "function"
    },
    {
      "inputs": [],
      "name": "owner",
      "outputs": [
        {
          "internalType": "address",
          "name": "",
          "type": "address"
        }
      ],
      "stateMutability": "view",
      "type": "function"
    },
    {
      "inputs": [],
      "name": "pause",
      "outputs": [],
      "stateMutability": "nonpayable",
      "type": "function"
    },
    {
      "inputs": [],
      "name": "paused",
      "outputs": [
        {
          "internalType": "bool",
          "name": "",
          "type": "bool"
        }
      ],
      "stateMutability": "view",
      "type": "function"
    },
    {
      "inputs": [],
      "name": "protocolFee",
      "outputs": [
        {
          "internalType": "uint256",
          "name": "",
          "type": "uint256"
        }
      ],
      "stateMutability": "view",
      "type": "function"
    },
    {
      "inputs": [],
      "name": "renounceOwnership",
      "outputs": [],
      "stateMutability": "nonpayable",
      "type": "function"
    },
    {
      "inputs": [
        {
          "internalType": "uint256",
          "name": "amount",
          "type": "uint256"
        }
      ],
      "name": "requestWithdrawal",
      "outputs": [],
      "stateMutability": "nonpayable",
      "type": "function"
    },
    {
      "inputs": [
        {
          "internalType": "address",
          "name": "collator",
          "type": "address"
        },
        {
          "internalType": "bool",
          "name": "status",
          "type": "bool"
        }
      ],
      "name": "setCollatorWhitelist",
      "outputs": [],
      "stateMutability": "nonpayable",
      "type": "function"
    },
    {
      "inputs": [
        {
          "internalType": "address",
          "name": "newCollector",
          "type": "address"
        }
      ],
      "name": "setFeeCollector",
      "outputs": [],
      "stateMutability": "nonpayable",
      "type": "function"
    },
    {
      "inputs": [
        {
          "internalType": "uint256",
          "name": "newFee",
          "type": "uint256"
        }
      ],
      "name": "setProtocolFee",
      "outputs": [],
      "stateMutability": "nonpayable",
      "type": "function"
    },
    {
      "inputs": [
        {
          "internalType": "uint256",
          "name": "newLimit",
          "type": "uint256"
        }
      ],
      "name": "setStakingLimit",
      "outputs": [],
      "stateMutability": "nonpayable",
      "type": "function"
    },
    {
      "inputs": [
        {
          "internalType": "uint256",
          "name": "newDelay",
          "type": "uint256"
        }
      ],
      "name": "setWithdrawalDelay",
      "outputs": [],
      "stateMutability": "nonpayable",
      "type": "function"
    },
    {
      "inputs": [],
      "name": "stPeaqToken",
      "outputs": [
        {
          "internalType": "contract IstPEAQ",
          "name": "",
          "type": "address"
        }
      ],
      "stateMutability": "view",
      "type": "function"
    },
    {
      "inputs": [],
      "name": "stakingLimit",
      "outputs": [
        {
          "internalType": "uint256",
          "name": "",
          "type": "uint256"
        }
      ],
      "stateMutability": "view",
      "type": "function"
    },
    {
      "inputs": [],
      "name": "totalPEAQWithCollators",
      "outputs": [
        {
          "internalType": "uint256",
          "name": "",
          "type": "uint256"
        }
      ],
      "stateMutability": "view",
      "type": "function"
    },
    {
      "inputs": [],
      "name": "totalStakedPEAQ",
      "outputs": [
        {
          "internalType": "uint256",
          "name": "",
          "type": "uint256"
        }
      ],
      "stateMutability": "view",
      "type": "function"
    },
    {
      "inputs": [
        {
          "internalType": "address",
          "name": "newOwner",
          "type": "address"
        }
      ],
      "name": "transferOwnership",
      "outputs": [],
      "stateMutability": "nonpayable",
      "type": "function"
    },
    {
      "inputs": [],
      "name": "unpause",
      "outputs": [],
      "stateMutability": "nonpayable",
      "type": "function"
    },
    {
      "inputs": [
        {
          "internalType": "address",
          "name": "",
          "type": "address"
        }
      ],
      "name": "whitelistedCollators",
      "outputs": [
        {
          "internalType": "bool",
          "name": "",
          "type": "bool"
        }
      ],
      "stateMutability": "view",
      "type": "function"
    },
    {
      "inputs": [
        {
          "internalType": "uint256",
          "name": "amount",
          "type": "uint256"
        },
        {
          "internalType": "address",
          "name": "collator",
          "type": "address"
        }
      ],
      "name": "withdrawStakedPEAQ",
      "outputs": [],
      "stateMutability": "nonpayable",
      "type": "function"
    },
    {
      "inputs": [],
      "name": "withdrawalDelay",
      "outputs": [
        {
          "internalType": "uint256",
          "name": "",
          "type": "uint256"
        }
      ],
      "stateMutability": "view",
      "type": "function"
    },
    {
      "inputs": [
        {
          "internalType": "address",
          "name": "",
          "type": "address"
        },
        {
          "internalType": "uint256",
          "name": "",
          "type": "uint256"
        }
      ],
      "name": "withdrawalRequests",
      "outputs": [
        {
          "internalType": "uint256",
          "name": "amount",
          "type": "uint256"
        },
        {
          "internalType": "uint256",
          "name": "unlockTime",
          "type": "uint256"
        }
      ],
      "stateMutability": "view",
      "type": "function"
    }
  ],
  "bytecode": "0x60806040526101f46003556203f4806006556000600860006101000a81548160ff02191690831515021790555034801561003857600080fd5b50604051613804380380613804833981810160405281019061005a91906102ad565b33600073ffffffffffffffffffffffffffffffffffffffff168173ffffffffffffffffffffffffffffffffffffffff16036100cd5760006040517f1e4fbdf70000000000000000000000000000000000000000000000000000000081526004016100c491906102e9565b60405180910390fd5b6100dc8161018660201b60201c565b5060008060146101000a81548160ff0219169083151502179055506001808190555080600260006101000a81548173ffffffffffffffffffffffffffffffffffffffff021916908373ffffffffffffffffffffffffffffffffffffffff16021790555033600460006101000a81548173ffffffffffffffffffffffffffffffffffffffff021916908373ffffffffffffffffffffffffffffffffffffffff16021790555050610304565b60008060009054906101000a900473ffffffffffffffffffffffffffffffffffffffff169050816000806101000a81548173ffffffffffffffffffffffffffffffffffffffff021916908373ffffffffffffffffffffffffffffffffffffffff1602179055508173ffffffffffffffffffffffffffffffffffffffff168173ffffffffffffffffffffffffffffffffffffffff167f8be0079c531659141344cd1fd0a4f28419497f9722a3daafe3b4186f6b6457e060405160405180910390a35050565b600080fd5b600073ffffffffffffffffffffffffffffffffffffffff82169050919050565b600061027a8261024f565b9050919050565b61028a8161026f565b811461029557600080fd5b50565b6000815190506102a781610281565b92915050565b6000602082840312156102c3576102c261024a565b5b60006102d184828501610298565b91505092915050565b6102e38161026f565b82525050565b60006020820190506102fe60008301846102da565b92915050565b6134f1806103136000396000f3fe6080604052600436106102255760003560e01c806386654e6211610123578063c415b95c116100ab578063db2e21bc1161006f578063db2e21bc14610782578063e6aa216c14610799578063efed0b8f146107c4578063f2fde38b146107ef578063f84444361461081857610225565b8063c415b95c146106e2578063d00960101461070d578063d0e30db014610724578063d2c13da51461072e578063d505da3c1461075757610225565b8063a42dce80116100f2578063a42dce80146105fb578063a7ab696114610624578063ab23075a1461064f578063b0e21e8a1461068c578063bc063e1a146106b757610225565b806386654e62146105515780638da5cb5b1461057c57806392828671146105a75780639ee679e8146105d257610225565b80635c975abb116101b1578063715018a611610175578063715018a61461049257806373b15b81146104a9578063787dce3d146104d45780637d031b65146104fd5780638456cb591461053a57610225565b80635c975abb146103e05780635e2c8caf1461040b5780636cb455b7146104365780636ef7fd4d1461045f5780636f4a2cd01461048857610225565b80632971a11e116101f85780632971a11e146102e65780633f4ba83a146103235780634da6a5561461033a5780634e5a23281461037757806355ba2f4f146103b557610225565b80630905f5601461022a5780630917e77614610255578063216352d114610280578063276ee539146102bd575b600080fd5b34801561023657600080fd5b5061023f610841565b60405161024c9190612730565b60405180910390f35b34801561026157600080fd5b5061026a610854565b6040516102779190612764565b60405180910390f35b34801561028c57600080fd5b506102a760048036038101906102a2919061280e565b61085e565b6040516102b49190612730565b60405180910390f35b3480156102c957600080fd5b506102e460048036038101906102df919061287a565b610921565b005b3480156102f257600080fd5b5061030d600480360381019061030891906128ba565b610a41565b60405161031a9190612730565b60405180910390f35b34801561032f57600080fd5b50610338610a61565b005b34801561034657600080fd5b50610361600480360381019061035c91906128ba565b610a73565b60405161036e9190612764565b60405180910390f35b34801561038357600080fd5b5061039e6004803603810190610399919061280e565b610c74565b6040516103ac9291906128e7565b60405180910390f35b3480156103c157600080fd5b506103ca610cb5565b6040516103d79190612764565b60405180910390f35b3480156103ec57600080fd5b506103f5610cbb565b6040516104029190612730565b60405180910390f35b34801561041757600080fd5b50610420610cd1565b60405161042d9190612764565b60405180910390f35b34801561044257600080fd5b5061045d60048036038101906104589190612910565b610ce8565b005b34801561046b57600080fd5b506104866004803603810190610481919061293d565b610d31565b005b610490610f24565b005b34801561049e57600080fd5b506104a7611166565b005b3480156104b557600080fd5b506104be61117a565b6040516104cb9190612764565b60405180910390f35b3480156104e057600080fd5b506104fb60048036038101906104f69190612910565b611180565b005b34801561050957600080fd5b50610524600480360381019061051f91906128ba565b61122f565b6040516105319190612a6a565b60405180910390f35b34801561054657600080fd5b5061054f6112e1565b005b34801561055d57600080fd5b506105666112f3565b6040516105739190612aeb565b60405180910390f35b34801561058857600080fd5b50610591611319565b60405161059e9190612b15565b60405180910390f35b3480156105b357600080fd5b506105bc611342565b6040516105c99190612764565b60405180910390f35b3480156105de57600080fd5b506105f960048036038101906105f49190612910565b61134c565b005b34801561060757600080fd5b50610622600480360381019061061d91906128ba565b6115fd565b005b34801561063057600080fd5b5061063961173a565b6040516106469190612764565b60405180910390f35b34801561065b57600080fd5b5061067660048036038101906106719190612910565b611740565b6040516106839190612764565b60405180910390f35b34801561069857600080fd5b506106a16117f2565b6040516106ae9190612764565b60405180910390f35b3480156106c357600080fd5b506106cc6117f8565b6040516106d99190612764565b60405180910390f35b3480156106ee57600080fd5b506106f76117fe565b6040516107049190612b15565b60405180910390f35b34801561071957600080fd5b50610722611824565b005b61072c611875565b005b34801561073a57600080fd5b5061075560048036038101906107509190612910565b611a6c565b005b34801561076357600080fd5b5061076c611b02565b6040516107799190612764565b60405180910390f35b34801561078e57600080fd5b50610797611b0c565b005b3480156107a557600080fd5b506107ae611e6f565b6040516107bb9190612764565b60405180910390f35b3480156107d057600080fd5b506107d9611fdd565b6040516107e69190612764565b60405180910390f35b3480156107fb57600080fd5b50610816600480360381019061081191906128ba565b611fe3565b005b34801561082457600080fd5b5061083f600480360381019061083a9190612910565b612069565b005b600860009054906101000a900460ff1681565b6000600754905090565b6000600560008473ffffffffffffffffffffffffffffffffffffffff1673ffffffffffffffffffffffffffffffffffffffff1681526020019081526020016000208054905082106108b2576000905061091b565b600560008473ffffffffffffffffffffffffffffffffffffffff1673ffffffffffffffffffffffffffffffffffffffff168152602001908152602001600020828154811061090357610902612b30565b5b90600052602060002090600202016001015442101590505b92915050565b61092961242d565b600073ffffffffffffffffffffffffffffffffffffffff168273ffffffffffffffffffffffffffffffffffffffff1603610998576040517f08c379a000000000000000000000000000000000000000000000000000000000815260040161098f90612bbc565b60405180910390fd5b80600960008473ffffffffffffffffffffffffffffffffffffffff1673ffffffffffffffffffffffffffffffffffffffff16815260200190815260200160002060006101000a81548160ff0219169083151502179055508173ffffffffffffffffffffffffffffffffffffffff167fbac1e56f0c6ccb10a7230c69ecd0c1168b98459adb1bcbc0d00b4f1eb9b1f44f82604051610a359190612730565b60405180910390a25050565b60096020528060005260406000206000915054906101000a900460ff1681565b610a6961242d565b610a716124b4565b565b600080600260009054906101000a900473ffffffffffffffffffffffffffffffffffffffff1673ffffffffffffffffffffffffffffffffffffffff166370a08231846040518263ffffffff1660e01b8152600401610ad19190612b15565b602060405180830381865afa158015610aee573d6000803e3d6000fd5b505050506040513d601f19601f82011682018060405250810190610b129190612bf1565b90506000811480610bb357506000600260009054906101000a900473ffffffffffffffffffffffffffffffffffffffff1673ffffffffffffffffffffffffffffffffffffffff166318160ddd6040518163ffffffff1660e01b8152600401602060405180830381865afa158015610b8d573d6000803e3d6000fd5b505050506040513d601f19601f82011682018060405250810190610bb19190612bf1565b145b15610bc2576000915050610c6f565b600260009054906101000a900473ffffffffffffffffffffffffffffffffffffffff1673ffffffffffffffffffffffffffffffffffffffff166318160ddd6040518163ffffffff1660e01b8152600401602060405180830381865afa158015610c2f573d6000803e3d6000fd5b505050506040513d601f19601f82011682018060405250810190610c539190612bf1565b60075482610c619190612c4d565b610c6b9190612cbe565b9150505b919050565b60056020528160005260406000208181548110610c9057600080fd5b9060005260206000209060020201600091509150508060000154908060010154905082565b600b5481565b60008060149054906101000a900460ff16905090565b6000600a54600754610ce39190612cef565b905090565b610cf061242d565b80600b819055507f755562ed366a717b0eb725893ab6581539ee371d492ffe52edb7ec5ae44a608981604051610d269190612764565b60405180910390a150565b610d3961242d565b610d41612516565b610d4961255c565b600960008273ffffffffffffffffffffffffffffffffffffffff1673ffffffffffffffffffffffffffffffffffffffff16815260200190815260200160002060009054906101000a900460ff16610dd5576040517f08c379a0000000000000000000000000000000000000000000000000000000008152600401610dcc90612d6f565b60405180910390fd5b47821115610e18576040517f08c379a0000000000000000000000000000000000000000000000000000000008152600401610e0f90612ddb565b60405180910390fd5b600a54600754610e289190612cef565b821115610e6a576040517f08c379a0000000000000000000000000000000000000000000000000000000008152600401610e6190612e47565b60405180910390fd5b81600a6000828254610e7c9190612e67565b925050819055508073ffffffffffffffffffffffffffffffffffffffff166108fc839081150290604051600060405180830381858888f19350505050158015610ec9573d6000803e3d6000fd5b508073ffffffffffffffffffffffffffffffffffffffff167f365621bf82a33051f9026ce60ed822f966445105f0b94be7e138b83fc5ae05f783604051610f109190612764565b60405180910390a2610f2061259d565b5050565b610f2c61242d565b60003411610f6f576040517f08c379a0000000000000000000000000000000000000000000000000000000008152600401610f6690612f0d565b60405180910390fd5b600061271060035434610f829190612c4d565b610f8c9190612cbe565b905060008134610f9c9190612cef565b9050600082111561108157600460009054906101000a900473ffffffffffffffffffffffffffffffffffffffff1673ffffffffffffffffffffffffffffffffffffffff166108fc839081150290604051600060405180830381858888f1935050505015801561100f573d6000803e3d6000fd5b50600460009054906101000a900473ffffffffffffffffffffffffffffffffffffffff1673ffffffffffffffffffffffffffffffffffffffff167f0c2a2f565c7774c59e49ef6b3c255329f4d254147e06e724d3a8569bb7bd21ad836040516110789190612764565b60405180910390a25b80600760008282546110939190612e67565b92505081905550600260009054906101000a900473ffffffffffffffffffffffffffffffffffffffff1673ffffffffffffffffffffffffffffffffffffffff1663bc4f2d6d6007546040518263ffffffff1660e01b81526004016110f79190612764565b600060405180830381600087803b15801561111157600080fd5b505af1158015611125573d6000803e3d6000fd5b505050507fb1648a07264d7eb6260b2e05c1420148c58a05efe7ae0a681fac4935cf3dff0d428260405161115a9291906128e7565b60405180910390a15050565b61116e61242d565b61117860006125a6565b565b60075481565b61118861242d565b6105dc8111156111cd576040517f08c379a00000000000000000000000000000000000000000000000000000000081526004016111c490612f79565b60405180910390fd5b60006003549050816003819055503373ffffffffffffffffffffffffffffffffffffffff167f248043181f58b3bd142504e517dc943537b6eb57e5022595574db85501d7fda282846040516112239291906128e7565b60405180910390a25050565b6060600560008373ffffffffffffffffffffffffffffffffffffffff1673ffffffffffffffffffffffffffffffffffffffff168152602001908152602001600020805480602002602001604051908101604052809291908181526020016000905b828210156112d657838290600052602060002090600202016040518060400160405290816000820154815260200160018201548152505081526020019060010190611290565b505050509050919050565b6112e961242d565b6112f161266a565b565b600260009054906101000a900473ffffffffffffffffffffffffffffffffffffffff1681565b60008060009054906101000a900473ffffffffffffffffffffffffffffffffffffffff16905090565b60006105dc905090565b61135461255c565b60008111611397576040517f08c379a000000000000000000000000000000000000000000000000000000000815260040161138e90612fe5565b60405180910390fd5b80600260009054906101000a900473ffffffffffffffffffffffffffffffffffffffff1673ffffffffffffffffffffffffffffffffffffffff166370a08231336040518263ffffffff1660e01b81526004016113f39190612b15565b602060405180830381865afa158015611410573d6000803e3d6000fd5b505050506040513d601f19601f820116820180604052508101906114349190612bf1565b1015611475576040517f08c379a000000000000000000000000000000000000000000000000000000000815260040161146c90613051565b60405180910390fd5b600260009054906101000a900473ffffffffffffffffffffffffffffffffffffffff1673ffffffffffffffffffffffffffffffffffffffff16639dc29fac33836040518363ffffffff1660e01b81526004016114d2929190613071565b600060405180830381600087803b1580156114ec57600080fd5b505af1158015611500573d6000803e3d6000fd5b505050506000600654426115149190612e67565b9050600560003373ffffffffffffffffffffffffffffffffffffffff1673ffffffffffffffffffffffffffffffffffffffff1681526020019081526020016000206040518060400160405280848152602001838152509080600181540180825580915050600190039060005260206000209060020201600090919091909150600082015181600001556020820151816001015550503373ffffffffffffffffffffffffffffffffffffffff167f24b91f4f47caf44230a57777a9be744924e82bf666f2d5702faf97df35e60f9f83836040516115f19291906128e7565b60405180910390a25050565b61160561242d565b600073ffffffffffffffffffffffffffffffffffffffff168173ffffffffffffffffffffffffffffffffffffffff1603611674576040517f08c379a000000000000000000000000000000000000000000000000000000000815260040161166b906130e6565b60405180910390fd5b6000600460009054906101000a900473ffffffffffffffffffffffffffffffffffffffff16905081600460006101000a81548173ffffffffffffffffffffffffffffffffffffffff021916908373ffffffffffffffffffffffffffffffffffffffff1602179055508173ffffffffffffffffffffffffffffffffffffffff168173ffffffffffffffffffffffffffffffffffffffff167f5d16ad41baeb009cd23eb8f6c7cde5c2e0cd5acf4a33926ab488875c37c37f3860405160405180910390a35050565b60065481565b6000600260009054906101000a900473ffffffffffffffffffffffffffffffffffffffff1673ffffffffffffffffffffffffffffffffffffffff166318160ddd6040518163ffffffff1660e01b8152600401602060405180830381865afa1580156117af573d6000803e3d6000fd5b505050506040513d601f19601f820116820180604052508101906117d39190612bf1565b600754836117e19190612c4d565b6117eb9190612cbe565b9050919050565b60035481565b6105dc81565b600460009054906101000a900473ffffffffffffffffffffffffffffffffffffffff1681565b61182c61242d565b6001600860006101000a81548160ff0219169083151502179055507f9e91804b7b70a36dcecd9afc85507eb02441c485502f58d0e68589aa50b8226a60405160405180910390a1565b61187d61255c565b611885612516565b600754346007546118969190612e67565b10156118d7576040517f08c379a00000000000000000000000000000000000000000000000000000000081526004016118ce90613152565b60405180910390fd5b600b54346007546118e89190612e67565b1115611929576040517f08c379a0000000000000000000000000000000000000000000000000000000008152600401611920906131be565b60405180910390fd5b6000341161196c576040517f08c379a00000000000000000000000000000000000000000000000000000000081526004016119639061322a565b60405180910390fd5b600260009054906101000a900473ffffffffffffffffffffffffffffffffffffffff1673ffffffffffffffffffffffffffffffffffffffff166340c10f1933346040518363ffffffff1660e01b81526004016119c9929190613071565b600060405180830381600087803b1580156119e357600080fd5b505af11580156119f7573d6000803e3d6000fd5b505050503460076000828254611a0d9190612e67565b925050819055503373ffffffffffffffffffffffffffffffffffffffff167f9e71bc8eea02a63969f509818f2dafb9254532904319f9dbda79b67bd34a5f3d34604051611a5a9190612764565b60405180910390a2611a6a61259d565b565b611a7461242d565b60008111611ab7576040517f08c379a0000000000000000000000000000000000000000000000000000000008152600401611aae906132bc565b60405180910390fd5b60006006549050816006819055507f9c3f1b54b1487e018f1d0593ff5cf7fb625b2df6332c974a6cc56bb3588798418183604051611af69291906128e7565b60405180910390a15050565b6000600a54905090565b600860009054906101000a900460ff16611b5b576040517f08c379a0000000000000000000000000000000000000000000000000000000008152600401611b5290613328565b60405180910390fd5b6000600260009054906101000a900473ffffffffffffffffffffffffffffffffffffffff1673ffffffffffffffffffffffffffffffffffffffff166370a08231336040518263ffffffff1660e01b8152600401611bb89190612b15565b602060405180830381865afa158015611bd5573d6000803e3d6000fd5b505050506040513d601f19601f82011682018060405250810190611bf99190612bf1565b905060008111611c3e576040517f08c379a0000000000000000000000000000000000000000000000000000000008152600401611c3590613394565b60405180910390fd5b600260009054906101000a900473ffffffffffffffffffffffffffffffffffffffff1673ffffffffffffffffffffffffffffffffffffffff16639dc29fac33836040518363ffffffff1660e01b8152600401611c9b929190613071565b600060405180830381600087803b158015611cb557600080fd5b505af1158015611cc9573d6000803e3d6000fd5b505050506000600260009054906101000a900473ffffffffffffffffffffffffffffffffffffffff1673ffffffffffffffffffffffffffffffffffffffff166318160ddd6040518163ffffffff1660e01b8152600401602060405180830381865afa158015611d3c573d6000803e3d6000fd5b505050506040513d601f19601f82011682018060405250810190611d609190612bf1565b60075483611d6e9190612c4d565b611d789190612cbe565b905047811115611dbd576040517f08c379a0000000000000000000000000000000000000000000000000000000008152600401611db490612ddb565b60405180910390fd5b8060076000828254611dcf9190612cef565b925050819055503373ffffffffffffffffffffffffffffffffffffffff166108fc829081150290604051600060405180830381858888f19350505050158015611e1c573d6000803e3d6000fd5b503373ffffffffffffffffffffffffffffffffffffffff167f23d6711a1d031134a36921253c75aa59e967d38e369ac625992824315e204f2082604051611e639190612764565b60405180910390a25050565b6000806007541480611f1157506000600260009054906101000a900473ffffffffffffffffffffffffffffffffffffffff1673ffffffffffffffffffffffffffffffffffffffff166318160ddd6040518163ffffffff1660e01b8152600401602060405180830381865afa158015611eeb573d6000803e3d6000fd5b505050506040513d601f19601f82011682018060405250810190611f0f9190612bf1565b145b15611f2657670de0b6b3a76400009050611fda565b600260009054906101000a900473ffffffffffffffffffffffffffffffffffffffff1673ffffffffffffffffffffffffffffffffffffffff166318160ddd6040518163ffffffff1660e01b8152600401602060405180830381865afa158015611f93573d6000803e3d6000fd5b505050506040513d601f19601f82011682018060405250810190611fb79190612bf1565b670de0b6b3a7640000600754611fcd9190612c4d565b611fd79190612cbe565b90505b90565b600a5481565b611feb61242d565b600073ffffffffffffffffffffffffffffffffffffffff168173ffffffffffffffffffffffffffffffffffffffff160361205d5760006040517f1e4fbdf70000000000000000000000000000000000000000000000000000000081526004016120549190612b15565b60405180910390fd5b612066816125a6565b50565b612071612516565b600560003373ffffffffffffffffffffffffffffffffffffffff1673ffffffffffffffffffffffffffffffffffffffff1681526020019081526020016000208054905081106120f5576040517f08c379a00000000000000000000000000000000000000000000000000000000081526004016120ec90613400565b60405180910390fd5b6000600560003373ffffffffffffffffffffffffffffffffffffffff1673ffffffffffffffffffffffffffffffffffffffff168152602001908152602001600020828154811061214857612147612b30565b5b906000526020600020906002020160405180604001604052908160008201548152602001600182015481525050905080602001514210156121be576040517f08c379a00000000000000000000000000000000000000000000000000000000081526004016121b59061346c565b60405180910390fd5b60006001600560003373ffffffffffffffffffffffffffffffffffffffff1673ffffffffffffffffffffffffffffffffffffffff1681526020019081526020016000208054905061220f9190612cef565b90508083146122ee57600560003373ffffffffffffffffffffffffffffffffffffffff1673ffffffffffffffffffffffffffffffffffffffff168152602001908152602001600020818154811061226957612268612b30565b5b9060005260206000209060020201600560003373ffffffffffffffffffffffffffffffffffffffff1673ffffffffffffffffffffffffffffffffffffffff16815260200190815260200160002084815481106122c8576122c7612b30565b5b906000526020600020906002020160008201548160000155600182015481600101559050505b600560003373ffffffffffffffffffffffffffffffffffffffff1673ffffffffffffffffffffffffffffffffffffffff16815260200190815260200160002080548061233d5761233c61348c565b5b600190038181906000526020600020906002020160008082016000905560018201600090555050905581600001516007600082825461237c9190612cef565b925050819055503373ffffffffffffffffffffffffffffffffffffffff166108fc83600001519081150290604051600060405180830381858888f193505050501580156123cd573d6000803e3d6000fd5b503373ffffffffffffffffffffffffffffffffffffffff167fd3f990ddd0f1a820ca21d6f29136b25c504220122117b21de9ede5602b99c58683600001516040516124189190612764565b60405180910390a2505061242a61259d565b50565b6124356126cd565b73ffffffffffffffffffffffffffffffffffffffff16612453611319565b73ffffffffffffffffffffffffffffffffffffffff16146124b2576124766126cd565b6040517f118cdaa70000000000000000000000000000000000000000000000000000000081526004016124a99190612b15565b60405180910390fd5b565b6124bc6126d5565b60008060146101000a81548160ff0219169083151502179055507f5db9ee0a495bf2e6ff9c91a7834c1ba4fdd244a5e8aa4e537bd38aeae4b073aa6124ff6126cd565b60405161250c9190612b15565b60405180910390a1565b600260015403612552576040517f3ee5aeb500000000000000000000000000000000000000000000000000000000815260040160405180910390fd5b6002600181905550565b612564610cbb565b1561259b576040517fd93c066500000000000000000000000000000000000000000000000000000000815260040160405180910390fd5b565b60018081905550565b60008060009054906101000a900473ffffffffffffffffffffffffffffffffffffffff169050816000806101000a81548173ffffffffffffffffffffffffffffffffffffffff021916908373ffffffffffffffffffffffffffffffffffffffff1602179055508173ffffffffffffffffffffffffffffffffffffffff168173ffffffffffffffffffffffffffffffffffffffff167f8be0079c531659141344cd1fd0a4f28419497f9722a3daafe3b4186f6b6457e060405160405180910390a35050565b61267261255c565b6001600060146101000a81548160ff0219169083151502179055507f62e78cea01bee320cd4e420270b5ea74000d11b0c9f74754ebdbfc544b05a2586126b66126cd565b6040516126c39190612b15565b60405180910390a1565b600033905090565b6126dd610cbb565b612713576040517f8dfc202b00000000000000000000000000000000000000000000000000000000815260040160405180910390fd5b565b60008115159050919050565b61272a81612715565b82525050565b60006020820190506127456000830184612721565b92915050565b6000819050919050565b61275e8161274b565b82525050565b60006020820190506127796000830184612755565b92915050565b600080fd5b600073ffffffffffffffffffffffffffffffffffffffff82169050919050565b60006127af82612784565b9050919050565b6127bf816127a4565b81146127ca57600080fd5b50565b6000813590506127dc816127b6565b92915050565b6127eb8161274b565b81146127f657600080fd5b50565b600081359050612808816127e2565b92915050565b600080604083850312156128255761282461277f565b5b6000612833858286016127cd565b9250506020612844858286016127f9565b9150509250929050565b61285781612715565b811461286257600080fd5b50565b6000813590506128748161284e565b92915050565b600080604083850312156128915761289061277f565b5b600061289f858286016127cd565b92505060206128b085828601612865565b9150509250929050565b6000602082840312156128d0576128cf61277f565b5b60006128de848285016127cd565b91505092915050565b60006040820190506128fc6000830185612755565b6129096020830184612755565b9392505050565b6000602082840312156129265761292561277f565b5b6000612934848285016127f9565b91505092915050565b600080604083850312156129545761295361277f565b5b6000612962858286016127f9565b9250506020612973858286016127cd565b9150509250929050565b600081519050919050565b600082825260208201905092915050565b6000819050602082019050919050565b6129b28161274b565b82525050565b6040820160008201516129ce60008501826129a9565b5060208201516129e160208501826129a9565b50505050565b60006129f383836129b8565b60408301905092915050565b6000602082019050919050565b6000612a178261297d565b612a218185612988565b9350612a2c83612999565b8060005b83811015612a5d578151612a4488826129e7565b9750612a4f836129ff565b925050600181019050612a30565b5085935050505092915050565b60006020820190508181036000830152612a848184612a0c565b905092915050565b6000819050919050565b6000612ab1612aac612aa784612784565b612a8c565b612784565b9050919050565b6000612ac382612a96565b9050919050565b6000612ad582612ab8565b9050919050565b612ae581612aca565b82525050565b6000602082019050612b006000830184612adc565b92915050565b612b0f816127a4565b82525050565b6000602082019050612b2a6000830184612b06565b92915050565b7f4e487b7100000000000000000000000000000000000000000000000000000000600052603260045260246000fd5b600082825260208201905092915050565b7f496e76616c696420636f6c6c61746f7220616464726573730000000000000000600082015250565b6000612ba6601883612b5f565b9150612bb182612b70565b602082019050919050565b60006020820190508181036000830152612bd581612b99565b9050919050565b600081519050612beb816127e2565b92915050565b600060208284031215612c0757612c0661277f565b5b6000612c1584828501612bdc565b91505092915050565b7f4e487b7100000000000000000000000000000000000000000000000000000000600052601160045260246000fd5b6000612c588261274b565b9150612c638361274b565b9250828202612c718161274b565b91508282048414831517612c8857612c87612c1e565b5b5092915050565b7f4e487b7100000000000000000000000000000000000000000000000000000000600052601260045260246000fd5b6000612cc98261274b565b9150612cd48361274b565b925082612ce457612ce3612c8f565b5b828204905092915050565b6000612cfa8261274b565b9150612d058361274b565b9250828203905081811115612d1d57612d1c612c1e565b5b92915050565b7f436f6c6c61746f72206e6f742077686974656c69737465640000000000000000600082015250565b6000612d59601883612b5f565b9150612d6482612d23565b602082019050919050565b60006020820190508181036000830152612d8881612d4c565b9050919050565b7f496e73756666696369656e7420636f6e74726163742062616c616e6365000000600082015250565b6000612dc5601d83612b5f565b9150612dd082612d8f565b602082019050919050565b60006020820190508181036000830152612df481612db8565b9050919050565b7f4578636565647320617661696c61626c65205045415100000000000000000000600082015250565b6000612e31601683612b5f565b9150612e3c82612dfb565b602082019050919050565b60006020820190508181036000830152612e6081612e24565b9050919050565b6000612e728261274b565b9150612e7d8361274b565b9250828201905080821115612e9557612e94612c1e565b5b92915050565b7f52657761726420616d6f756e74206d757374206265206772656174657220746860008201527f616e207a65726f00000000000000000000000000000000000000000000000000602082015250565b6000612ef7602783612b5f565b9150612f0282612e9b565b604082019050919050565b60006020820190508181036000830152612f2681612eea565b9050919050565b7f4665652063616e6e6f7420657863656564203130250000000000000000000000600082015250565b6000612f63601583612b5f565b9150612f6e82612f2d565b602082019050919050565b60006020820190508181036000830152612f9281612f56565b9050919050565b7f416d6f756e74206d7573742062652067726561746572207468616e207a65726f600082015250565b6000612fcf602083612b5f565b9150612fda82612f99565b602082019050919050565b60006020820190508181036000830152612ffe81612fc2565b9050919050565b7f496e73756666696369656e74207374504541512062616c616e63650000000000600082015250565b600061303b601b83612b5f565b915061304682613005565b602082019050919050565b6000602082019050818103600083015261306a8161302e565b9050919050565b60006040820190506130866000830185612b06565b6130936020830184612755565b9392505050565b7f496e76616c696420616464726573730000000000000000000000000000000000600082015250565b60006130d0600f83612b5f565b91506130db8261309a565b602082019050919050565b600060208201905081810360008301526130ff816130c3565b9050919050565b7f4f766572666c6f7720636865636b000000000000000000000000000000000000600082015250565b600061313c600e83612b5f565b915061314782613106565b602082019050919050565b6000602082019050818103600083015261316b8161312f565b9050919050565b7f5374616b696e67206c696d697420726561636865640000000000000000000000600082015250565b60006131a8601583612b5f565b91506131b382613172565b602082019050919050565b600060208201905081810360008301526131d78161319b565b9050919050565b7f4d7573742073656e64205045415120746f206465706f73697400000000000000600082015250565b6000613214601983612b5f565b915061321f826131de565b602082019050919050565b6000602082019050818103600083015261324381613207565b9050919050565b7f5769746864726177616c2064656c6179206d757374206265206772656174657260008201527f207468616e207a65726f00000000000000000000000000000000000000000000602082015250565b60006132a6602a83612b5f565b91506132b18261324a565b604082019050919050565b600060208201905081810360008301526132d581613299565b9050919050565b7f456d657267656e6379206d6f6465206973206e6f742061637469766500000000600082015250565b6000613312601c83612b5f565b915061331d826132dc565b602082019050919050565b6000602082019050818103600083015261334181613305565b9050919050565b7f4e6f207374616b65642062616c616e6365000000000000000000000000000000600082015250565b600061337e601183612b5f565b915061338982613348565b602082019050919050565b600060208201905081810360008301526133ad81613371565b9050919050565b7f496e76616c6964207265717565737420696e6465780000000000000000000000600082015250565b60006133ea601583612b5f565b91506133f5826133b4565b602082019050919050565b60006020820190508181036000830152613419816133dd565b9050919050565b7f5769746864726177616c206e6f742079657420636c61696d61626c6500000000600082015250565b6000613456601c83612b5f565b915061346182613420565b602082019050919050565b6000602082019050818103600083015261348581613449565b9050919050565b7f4e487b7100000000000000000000000000000000000000000000000000000000600052603160045260246000fdfea264697066735822122004248e16a527059fb46d3b0e3161814bd0235ff664a074db6022cbe908d8093d64736f6c634300081c0033",
  "linkReferences": {},
  "deployedLinkReferences": {}
}