{
  "_format": "hh-sol-artifact-1",
  "contractName": "stPEAQ",
  "sourceName": "contracts/stPEAQ.sol",
  "abi": [
    {
      "inputs": [
        {
          "internalType": "address",
          "name": "_stakingContract",
          "type": "address"
        }
      ],
      "stateMutability": "nonpayable",
      "type": "constructor"
    },
    {
      "inputs": [],
      "name": "ECDSAInvalidSignature",
      "type": "error"
    },
    {
      "inputs": [
        {
          "internalType": "uint256",
          "name": "length",
          "type": "uint256"
        }
      ],
      "name": "ECDSAInvalidSignatureLength",
      "type": "error"
    },
    {
      "inputs": [
        {
          "internalType": "bytes32",
          "name": "s",
          "type": "bytes32"
        }
      ],
      "name": "ECDSAInvalidSignatureS",
      "type": "error"
    },
    {
      "inputs": [
        {
          "internalType": "address",
          "name": "spender",
          "type": "address"
        },
        {
          "internalType": "uint256",
          "name": "allowance",
          "type": "uint256"
        },
        {
          "internalType": "uint256",
          "name": "needed",
          "type": "uint256"
        }
      ],
      "name": "ERC20InsufficientAllowance",
      "type": "error"
    },
    {
      "inputs": [
        {
          "internalType": "address",
          "name": "sender",
          "type": "address"
        },
        {
          "internalType": "uint256",
          "name": "balance",
          "type": "uint256"
        },
        {
          "internalType": "uint256",
          "name": "needed",
          "type": "uint256"
        }
      ],
      "name": "ERC20InsufficientBalance",
      "type": "error"
    },
    {
      "inputs": [
        {
          "internalType": "address",
          "name": "approver",
          "type": "address"
        }
      ],
      "name": "ERC20InvalidApprover",
      "type": "error"
    },
    {
      "inputs": [
        {
          "internalType": "address",
          "name": "receiver",
          "type": "address"
        }
      ],
      "name": "ERC20InvalidReceiver",
      "type": "error"
    },
    {
      "inputs": [
        {
          "internalType": "address",
          "name": "sender",
          "type": "address"
        }
      ],
      "name": "ERC20InvalidSender",
      "type": "error"
    },
    {
      "inputs": [
        {
          "internalType": "address",
          "name": "spender",
          "type": "address"
        }
      ],
      "name": "ERC20InvalidSpender",
      "type": "error"
    },
    {
      "inputs": [
        {
          "internalType": "uint256",
          "name": "deadline",
          "type": "uint256"
        }
      ],
      "name": "ERC2612ExpiredSignature",
      "type": "error"
    },
    {
      "inputs": [
        {
          "internalType": "address",
          "name": "signer",
          "type": "address"
        },
        {
          "internalType": "address",
          "name": "owner",
          "type": "address"
        }
      ],
      "name": "ERC2612InvalidSigner",
      "type": "error"
    },
    {
      "inputs": [],
      "name": "EnforcedPause",
      "type": "error"
    },
    {
      "inputs": [],
      "name": "ExpectedPause",
      "type": "error"
    },
    {
      "inputs": [
        {
          "internalType": "address",
          "name": "account",
          "type": "address"
        },
        {
          "internalType": "uint256",
          "name": "currentNonce",
          "type": "uint256"
        }
      ],
      "name": "InvalidAccountNonce",
      "type": "error"
    },
    {
      "inputs": [],
      "name": "InvalidShortString",
      "type": "error"
    },
    {
      "inputs": [
        {
          "internalType": "address",
          "name": "owner",
          "type": "address"
        }
      ],
      "name": "OwnableInvalidOwner",
      "type": "error"
    },
    {
      "inputs": [
        {
          "internalType": "address",
          "name": "account",
          "type": "address"
        }
      ],
      "name": "OwnableUnauthorizedAccount",
      "type": "error"
    },
    {
      "inputs": [
        {
          "internalType": "string",
          "name": "str",
          "type": "string"
        }
      ],
      "name": "StringTooLong",
      "type": "error"
    },
    {
      "anonymous": false,
      "inputs": [
        {
          "indexed": true,
          "internalType": "address",
          "name": "owner",
          "type": "address"
        },
        {
          "indexed": true,
          "internalType": "address",
          "name": "spender",
          "type": "address"
        },
        {
          "indexed": false,
          "internalType": "uint256",
          "name": "value",
          "type": "uint256"
        }
      ],
      "name": "Approval",
      "type": "event"
    },
    {
      "anonymous": false,
      "inputs": [],
      "name": "EIP712DomainChanged",
      "type": "event"
    },
    {
      "anonymous": false,
      "inputs": [
        {
          "indexed": true,
          "internalType": "address",
          "name": "previousOwner",
          "type": "address"
        },
        {
          "indexed": true,
          "internalType": "address",
          "name": "newOwner",
          "type": "address"
        }
      ],
      "name": "OwnershipTransferred",
      "type": "event"
    },
    {
      "anonymous": false,
      "inputs": [
        {
          "indexed": false,
          "internalType": "address",
          "name": "account",
          "type": "address"
        }
      ],
      "name": "Paused",
      "type": "event"
    },
    {
      "anonymous": false,
      "inputs": [
        {
          "indexed": false,
          "internalType": "uint256",
          "name": "oldFactor",
          "type": "uint256"
        },
        {
          "indexed": false,
          "internalType": "uint256",
          "name": "newFactor",
          "type": "uint256"
        }
      ],
      "name": "ScalingFactorUpdated",
      "type": "event"
    },
    {
      "anonymous": false,
      "inputs": [
        {
          "indexed": false,
          "internalType": "address",
          "name": "oldContract",
          "type": "address"
        },
        {
          "indexed": false,
          "internalType": "address",
          "name": "newContract",
          "type": "address"
        }
      ],
      "name": "StakingContractUpdated",
      "type": "event"
    },
    {
      "anonymous": false,
      "inputs": [
        {
          "indexed": true,
          "internalType": "address",
          "name": "from",
          "type": "address"
        },
        {
          "indexed": true,
          "internalType": "address",
          "name": "to",
          "type": "address"
        },
        {
          "indexed": false,
          "internalType": "uint256",
          "name": "value",
          "type": "uint256"
        }
      ],
      "name": "Transfer",
      "type": "event"
    },
    {
      "anonymous": false,
      "inputs": [
        {
          "indexed": false,
          "internalType": "address",
          "name": "account",
          "type": "address"
        }
      ],
      "name": "Unpaused",
      "type": "event"
    },
    {
      "inputs": [],
      "name": "DOMAIN_SEPARATOR",
      "outputs": [
        {
          "internalType": "bytes32",
          "name": "",
          "type": "bytes32"
        }
      ],
      "stateMutability": "view",
      "type": "function"
    },
    {
      "inputs": [
        {
          "internalType": "address",
          "name": "owner",
          "type": "address"
        },
        {
          "internalType": "address",
          "name": "spender",
          "type": "address"
        }
      ],
      "name": "allowance",
      "outputs": [
        {
          "internalType": "uint256",
          "name": "",
          "type": "uint256"
        }
      ],
      "stateMutability": "view",
      "type": "function"
    },
    {
      "inputs": [
        {
          "internalType": "address",
          "name": "spender",
          "type": "address"
        },
        {
          "internalType": "uint256",
          "name": "value",
          "type": "uint256"
        }
      ],
      "name": "approve",
      "outputs": [
        {
          "internalType": "bool",
          "name": "",
          "type": "bool"
        }
      ],
      "stateMutability": "nonpayable",
      "type": "function"
    },
    {
      "inputs": [
        {
          "internalType": "address",
          "name": "account",
          "type": "address"
        }
      ],
      "name": "balanceOf",
      "outputs": [
        {
          "internalType": "uint256",
          "name": "",
          "type": "uint256"
        }
      ],
      "stateMutability": "view",
      "type": "function"
    },
    {
      "inputs": [
        {
          "internalType": "address",
          "name": "from",
          "type": "address"
        },
        {
          "internalType": "uint256",
          "name": "amount",
          "type": "uint256"
        }
      ],
      "name": "burn",
      "outputs": [],
      "stateMutability": "nonpayable",
      "type": "function"
    },
    {
      "inputs": [],
      "name": "decimals",
      "outputs": [
        {
          "internalType": "uint8",
          "name": "",
          "type": "uint8"
        }
      ],
      "stateMutability": "view",
      "type": "function"
    },
    {
      "inputs": [],
      "name": "eip712Domain",
      "outputs": [
        {
          "internalType": "bytes1",
          "name": "fields",
          "type": "bytes1"
        },
        {
          "internalType": "string",
          "name": "name",
          "type": "string"
        },
        {
          "internalType": "string",
          "name": "version",
          "type": "string"
        },
        {
          "internalType": "uint256",
          "name": "chainId",
          "type": "uint256"
        },
        {
          "internalType": "address",
          "name": "verifyingContract",
          "type": "address"
        },
        {
          "internalType": "bytes32",
          "name": "salt",
          "type": "bytes32"
        },
        {
          "internalType": "uint256[]",
          "name": "extensions",
          "type": "uint256[]"
        }
      ],
      "stateMutability": "view",
      "type": "function"
    },
    {
      "inputs": [],
      "name": "getScalingFactor",
      "outputs": [
        {
          "internalType": "uint256",
          "name": "",
          "type": "uint256"
        }
      ],
      "stateMutability": "view",
      "type": "function"
    },
    {
      "inputs": [
        {
          "internalType": "uint256",
          "name": "peaqAmount",
          "type": "uint256"
        }
      ],
      "name": "getStPeaqAmount",
      "outputs": [
        {
          "internalType": "uint256",
          "name": "",
          "type": "uint256"
        }
      ],
      "stateMutability": "view",
      "type": "function"
    },
    {
      "inputs": [],
      "name": "getTotalUnderlying",
      "outputs": [
        {
          "internalType": "uint256",
          "name": "",
          "type": "uint256"
        }
      ],
      "stateMutability": "view",
      "type": "function"
    },
    {
      "inputs": [
        {
          "internalType": "uint256",
          "name": "stPeaqAmount",
          "type": "uint256"
        }
      ],
      "name": "getUnderlyingAmount",
      "outputs": [
        {
          "internalType": "uint256",
          "name": "",
          "type": "uint256"
        }
      ],
      "stateMutability": "view",
      "type": "function"
    },
    {
      "inputs": [
        {
          "internalType": "address",
          "name": "to",
          "type": "address"
        },
        {
          "internalType": "uint256",
          "name": "amount",
          "type": "uint256"
        }
      ],
      "name": "mint",
      "outputs": [],
      "stateMutability": "nonpayable",
      "type": "function"
    },
    {
      "inputs": [],
      "name": "name",
      "outputs": [
        {
          "internalType": "string",
          "name": "",
          "type": "string"
        }
      ],
      "stateMutability": "view",
      "type": "function"
    },
    {
      "inputs": [
        {
          "internalType": "address",
          "name": "owner",
          "type": "address"
        }
      ],
      "name": "nonces",
      "outputs": [
        {
          "internalType": "uint256",
          "name": "",
          "type": "uint256"
        }
      ],
      "stateMutability": "view",
      "type": "function"
    },
    {
      "inputs": [],
      "name": "owner",
      "outputs": [
        {
          "internalType": "address",
          "name": "",
          "type": "address"
        }
      ],
      "stateMutability": "view",
      "type": "function"
    },
    {
      "inputs": [],
      "name": "pause",
      "outputs": [],
      "stateMutability": "nonpayable",
      "type": "function"
    },
    {
      "inputs": [],
      "name": "paused",
      "outputs": [
        {
          "internalType": "bool",
          "name": "",
          "type": "bool"
        }
      ],
      "stateMutability": "view",
      "type": "function"
    },
    {
      "inputs": [
        {
          "internalType": "address",
          "name": "owner",
          "type": "address"
        },
        {
          "internalType": "address",
          "name": "spender",
          "type": "address"
        },
        {
          "internalType": "uint256",
          "name": "value",
          "type": "uint256"
        },
        {
          "internalType": "uint256",
          "name": "deadline",
          "type": "uint256"
        },
        {
          "internalType": "uint8",
          "name": "v",
          "type": "uint8"
        },
        {
          "internalType": "bytes32",
          "name": "r",
          "type": "bytes32"
        },
        {
          "internalType": "bytes32",
          "name": "s",
          "type": "bytes32"
        }
      ],
      "name": "permit",
      "outputs": [],
      "stateMutability": "nonpayable",
      "type": "function"
    },
    {
      "inputs": [
        {
          "internalType": "uint256",
          "name": "newTotalUnderlying",
          "type": "uint256"
        }
      ],
      "name": "rebase",
      "outputs": [],
      "stateMutability": "nonpayable",
      "type": "function"
    },
    {
      "inputs": [],
      "name": "renounceOwnership",
      "outputs": [],
      "stateMutability": "nonpayable",
      "type": "function"
    },
    {
      "inputs": [
        {
          "internalType": "uint256",
          "name": "newScalingFactor",
          "type": "uint256"
        }
      ],
      "name": "setScalingFactor",
      "outputs": [],
      "stateMutability": "nonpayable",
      "type": "function"
    },
    {
      "inputs": [
        {
          "internalType": "address",
          "name": "_stakingContract",
          "type": "address"
        }
      ],
      "name": "setStakingContract",
      "outputs": [],
      "stateMutability": "nonpayable",
      "type": "function"
    },
    {
      "inputs": [],
      "name": "stakingContract",
      "outputs": [
        {
          "internalType": "address",
          "name": "",
          "type": "address"
        }
      ],
      "stateMutability": "view",
      "type": "function"
    },
    {
      "inputs": [],
      "name": "symbol",
      "outputs": [
        {
          "internalType": "string",
          "name": "",
          "type": "string"
        }
      ],
      "stateMutability": "view",
      "type": "function"
    },
    {
      "inputs": [],
      "name": "totalSupply",
      "outputs": [
        {
          "internalType": "uint256",
          "name": "",
          "type": "uint256"
        }
      ],
      "stateMutability": "view",
      "type": "function"
    },
    {
      "inputs": [
        {
          "internalType": "address",
          "name": "to",
          "type": "address"
        },
        {
          "internalType": "uint256",
          "name": "value",
          "type": "uint256"
        }
      ],
      "name": "transfer",
      "outputs": [
        {
          "internalType": "bool",
          "name": "",
          "type": "bool"
        }
      ],
      "stateMutability": "nonpayable",
      "type": "function"
    },
    {
      "inputs": [
        {
          "internalType": "address",
          "name": "from",
          "type": "address"
        },
        {
          "internalType": "address",
          "name": "to",
          "type": "address"
        },
        {
          "internalType": "uint256",
          "name": "value",
          "type": "uint256"
        }
      ],
      "name": "transferFrom",
      "outputs": [
        {
          "internalType": "bool",
          "name": "",
          "type": "bool"
        }
      ],
      "stateMutability": "nonpayable",
      "type": "function"
    },
    {
      "inputs": [
        {
          "internalType": "address",
          "name": "newOwner",
          "type": "address"
        }
      ],
      "name": "transferOwnership",
      "outputs": [],
      "stateMutability": "nonpayable",
      "type": "function"
    },
    {
      "inputs": [],
      "name": "unpause",
      "outputs": [],
      "stateMutability": "nonpayable",
      "type": "function"
    }
  ],
  "bytecode": "0x610160604052670de0b6b3a764000060095534801561001d57600080fd5b5060405161381b38038061381b833981810160405281019061003f9190610510565b336040518060400160405280600b81526020017f5374616b65642050454151000000000000000000000000000000000000000000815250806040518060400160405280600181526020017f31000000000000000000000000000000000000000000000000000000000000008152506040518060400160405280600b81526020017f5374616b656420504541510000000000000000000000000000000000000000008152506040518060400160405280600681526020017f73745045415100000000000000000000000000000000000000000000000000008152508160039081610128919061078d565b508060049081610138919061078d565b50505061014f6005836102ca60201b90919060201c565b610120818152505061016b6006826102ca60201b90919060201c565b6101408181525050818051906020012060e08181525050808051906020012061010081815250504660a081815250506101a861031a60201b60201c565b608081815250503073ffffffffffffffffffffffffffffffffffffffff1660c08173ffffffffffffffffffffffffffffffffffffffff1681525050505050600073ffffffffffffffffffffffffffffffffffffffff168173ffffffffffffffffffffffffffffffffffffffff16036102585760006040517f1e4fbdf700000000000000000000000000000000000000000000000000000000815260040161024f919061086e565b60405180910390fd5b6102678161037560201b60201c565b506000600860146101000a81548160ff02191690831515021790555080600b60006101000a81548173ffffffffffffffffffffffffffffffffffffffff021916908373ffffffffffffffffffffffffffffffffffffffff16021790555050610a42565b60006020835110156102ec576102e58361043b60201b60201c565b9050610314565b826102fc836104a360201b60201c565b600001908161030b919061078d565b5060ff60001b90505b92915050565b60007f8b73c3c69bb8fe3d512ecc4cf759cc79239f7b179b0ffacaa9a75d522b39400f60e05161010051463060405160200161035a9594939291906108b1565b60405160208183030381529060405280519060200120905090565b6000600860009054906101000a900473ffffffffffffffffffffffffffffffffffffffff16905081600860006101000a81548173ffffffffffffffffffffffffffffffffffffffff021916908373ffffffffffffffffffffffffffffffffffffffff1602179055508173ffffffffffffffffffffffffffffffffffffffff168173ffffffffffffffffffffffffffffffffffffffff167f8be0079c531659141344cd1fd0a4f28419497f9722a3daafe3b4186f6b6457e060405160405180910390a35050565b600080829050601f8151111561048857826040517f305a27a900000000000000000000000000000000000000000000000000000000815260040161047f9190610989565b60405180910390fd5b805181610494906109db565b60001c1760001b915050919050565b6000819050919050565b600080fd5b600073ffffffffffffffffffffffffffffffffffffffff82169050919050565b60006104dd826104b2565b9050919050565b6104ed816104d2565b81146104f857600080fd5b50565b60008151905061050a816104e4565b92915050565b600060208284031215610526576105256104ad565b5b6000610534848285016104fb565b91505092915050565b600081519050919050565b7f4e487b7100000000000000000000000000000000000000000000000000000000600052604160045260246000fd5b7f4e487b7100000000000000000000000000000000000000000000000000000000600052602260045260246000fd5b600060028204905060018216806105be57607f821691505b6020821081036105d1576105d0610577565b5b50919050565b60008190508160005260206000209050919050565b60006020601f8301049050919050565b600082821b905092915050565b6000600883026106397fffffffffffffffffffffffffffffffffffffffffffffffffffffffffffffffff826105fc565b61064386836105fc565b95508019841693508086168417925050509392505050565b6000819050919050565b6000819050919050565b600061068a6106856106808461065b565b610665565b61065b565b9050919050565b6000819050919050565b6106a48361066f565b6106b86106b082610691565b848454610609565b825550505050565b600090565b6106cd6106c0565b6106d881848461069b565b505050565b5b818110156106fc576106f16000826106c5565b6001810190506106de565b5050565b601f82111561074157610712816105d7565b61071b846105ec565b8101602085101561072a578190505b61073e610736856105ec565b8301826106dd565b50505b505050565b600082821c905092915050565b600061076460001984600802610746565b1980831691505092915050565b600061077d8383610753565b9150826002028217905092915050565b6107968261053d565b67ffffffffffffffff8111156107af576107ae610548565b5b6107b982546105a6565b6107c4828285610700565b600060209050601f8311600181146107f757600084156107e5578287015190505b6107ef8582610771565b865550610857565b601f198416610805866105d7565b60005b8281101561082d57848901518255600182019150602085019450602081019050610808565b8683101561084a5784890151610846601f891682610753565b8355505b6001600288020188555050505b505050505050565b610868816104d2565b82525050565b6000602082019050610883600083018461085f565b92915050565b6000819050919050565b61089c81610889565b82525050565b6108ab8161065b565b82525050565b600060a0820190506108c66000830188610893565b6108d36020830187610893565b6108e06040830186610893565b6108ed60608301856108a2565b6108fa608083018461085f565b9695505050505050565b600082825260208201905092915050565b60005b83811015610933578082015181840152602081019050610918565b60008484015250505050565b6000601f19601f8301169050919050565b600061095b8261053d565b6109658185610904565b9350610975818560208601610915565b61097e8161093f565b840191505092915050565b600060208201905081810360008301526109a38184610950565b905092915050565b600081519050919050565b6000819050602082019050919050565b60006109d28251610889565b80915050919050565b60006109e6826109ab565b826109f0846109b6565b90506109fb816109c6565b92506020821015610a3b57610a367fffffffffffffffffffffffffffffffffffffffffffffffffffffffffffffffff836020036008026105fc565b831692505b5050919050565b60805160a05160c05160e051610100516101205161014051612d7f610a9c600039600061170a015260006116cf01526000611ca101526000611c80015260006112ac015260006113020152600061132b0152612d7f6000f3fe608060405234801561001057600080fd5b50600436106101cf5760003560e01c80638456cb5911610104578063b40494e5116100a2578063dd62ed3e11610071578063dd62ed3e146104fe578063df2f61b01461052e578063ee99205c1461054c578063f2fde38b1461056a576101cf565b8063b40494e514610478578063bc4f2d6d14610496578063d4e8ee1b146104b2578063d505accf146104e2576101cf565b806395d89b41116100de57806395d89b41146103f25780639dc29fac146104105780639dd373b91461042c578063a9059cbb14610448576101cf565b80638456cb59146103a657806384b0196e146103b05780638da5cb5b146103d4576101cf565b806340c10f1911610171578063672abd2d1161014b578063672abd2d1461032057806370a082311461033c578063715018a61461036c5780637ecebe0014610376576101cf565b806340c10f19146102b657806355f2a4a0146102d25780635c975abb14610302576101cf565b806323b872dd116101ad57806323b872dd14610240578063313ce567146102705780633644e5151461028e5780633f4ba83a146102ac576101cf565b806306fdde03146101d4578063095ea7b3146101f257806318160ddd14610222575b600080fd5b6101dc610586565b6040516101e991906121ce565b60405180910390f35b61020c60048036038101906102079190612289565b610618565b60405161021991906122e4565b60405180910390f35b61022a61063b565b604051610237919061230e565b60405180910390f35b61025a60048036038101906102559190612329565b610665565b60405161026791906122e4565b60405180910390f35b610278610694565b6040516102859190612398565b60405180910390f35b61029661069d565b6040516102a391906123cc565b60405180910390f35b6102b46106ac565b005b6102d060048036038101906102cb9190612289565b6106be565b005b6102ec60048036038101906102e791906123e7565b610812565b6040516102f9919061230e565b60405180910390f35b61030a61083c565b60405161031791906122e4565b60405180910390f35b61033a600480360381019061033591906123e7565b610853565b005b61035660048036038101906103519190612414565b6108e9565b604051610363919061230e565b60405180910390f35b610374610926565b005b610390600480360381019061038b9190612414565b61093a565b60405161039d919061230e565b60405180910390f35b6103ae61094c565b005b6103b861095e565b6040516103cb9796959493929190612549565b60405180910390f35b6103dc610a08565b6040516103e991906125cd565b60405180910390f35b6103fa610a32565b60405161040791906121ce565b60405180910390f35b61042a60048036038101906104259190612289565b610ac4565b005b61044660048036038101906104419190612414565b610bc0565b005b610462600480360381019061045d9190612289565b610cd6565b60405161046f91906122e4565b60405180910390f35b610480610cf9565b60405161048d919061230e565b60405180910390f35b6104b060048036038101906104ab91906123e7565b610d03565b005b6104cc60048036038101906104c791906123e7565b610e56565b6040516104d9919061230e565b60405180910390f35b6104fc60048036038101906104f79190612640565b610e80565b005b610518600480360381019061051391906126e2565b610fc8565b604051610525919061230e565b60405180910390f35b61053661104f565b604051610543919061230e565b60405180910390f35b610554611059565b60405161056191906125cd565b60405180910390f35b610584600480360381019061057f9190612414565b61107f565b005b60606003805461059590612751565b80601f01602080910402602001604051908101604052809291908181526020018280546105c190612751565b801561060e5780601f106105e35761010080835404028352916020019161060e565b820191906000526020600020905b8154815290600101906020018083116105f157829003601f168201915b5050505050905090565b600080610623611105565b905061063081858561110d565b600191505092915050565b6000600954670de0b6b3a7640000600a5461065691906127b1565b6106609190612822565b905090565b600080610670611105565b905061067d85828561111f565b6106888585856111b4565b60019150509392505050565b60006012905090565b60006106a76112a8565b905090565b6106b461135f565b6106bc6113e6565b565b600b60009054906101000a900473ffffffffffffffffffffffffffffffffffffffff1673ffffffffffffffffffffffffffffffffffffffff163373ffffffffffffffffffffffffffffffffffffffff161461074e576040517f08c379a0000000000000000000000000000000000000000000000000000000008152600401610745906128c5565b60405180910390fd5b610756611449565b600073ffffffffffffffffffffffffffffffffffffffff168273ffffffffffffffffffffffffffffffffffffffff16036107c5576040517f08c379a00000000000000000000000000000000000000000000000000000000081526004016107bc90612931565b60405180910390fd5b6000600954670de0b6b3a7640000836107de91906127b1565b6107e89190612822565b90506107f4838261148a565b81600a60008282546108069190612951565b92505081905550505050565b6000670de0b6b3a76400006009548361082b91906127b1565b6108359190612822565b9050919050565b6000600860149054906101000a900460ff16905090565b61085b61135f565b6000811161089e576040517f08c379a0000000000000000000000000000000000000000000000000000000008152600401610895906129d1565b60405180910390fd5b60006009549050816009819055507fe913f4328fd2dda11efbeaa194cd025273867b59b51975d0c12a2859e818710f81836040516108dd9291906129f1565b60405180910390a15050565b6000806108f58361150c565b905060006009548261090791906127b1565b9050670de0b6b3a76400008161091d9190612822565b92505050919050565b61092e61135f565b6109386000611554565b565b60006109458261161a565b9050919050565b61095461135f565b61095c611663565b565b6000606080600080600060606109726116c6565b61097a611701565b46306000801b600067ffffffffffffffff81111561099b5761099a612a1a565b5b6040519080825280602002602001820160405280156109c95781602001602082028036833780820191505090505b507f0f00000000000000000000000000000000000000000000000000000000000000959493929190965096509650965096509650965090919293949596565b6000600860009054906101000a900473ffffffffffffffffffffffffffffffffffffffff16905090565b606060048054610a4190612751565b80601f0160208091040260200160405190810160405280929190818152602001828054610a6d90612751565b8015610aba5780601f10610a8f57610100808354040283529160200191610aba565b820191906000526020600020905b815481529060010190602001808311610a9d57829003601f168201915b5050505050905090565b600b60009054906101000a900473ffffffffffffffffffffffffffffffffffffffff1673ffffffffffffffffffffffffffffffffffffffff163373ffffffffffffffffffffffffffffffffffffffff1614610b54576040517f08c379a0000000000000000000000000000000000000000000000000000000008152600401610b4b906128c5565b60405180910390fd5b610b5c611449565b6000600954670de0b6b3a764000083610b7591906127b1565b610b7f9190612822565b9050610b8b838261173c565b600a548210610ba1576001600a81905550610bbb565b81600a6000828254610bb39190612a49565b925050819055505b505050565b610bc861135f565b600073ffffffffffffffffffffffffffffffffffffffff168173ffffffffffffffffffffffffffffffffffffffff1603610c37576040517f08c379a0000000000000000000000000000000000000000000000000000000008152600401610c2e90612ac9565b60405180910390fd5b80600b60006101000a81548173ffffffffffffffffffffffffffffffffffffffff021916908373ffffffffffffffffffffffffffffffffffffffff1602179055507f7042586b23181180eb30b4798702d7a0233b7fc2551e89806770e8e5d9392e6a600b60009054906101000a900473ffffffffffffffffffffffffffffffffffffffff1682604051610ccb929190612ae9565b60405180910390a150565b600080610ce1611105565b9050610cee8185856111b4565b600191505092915050565b6000600a54905090565b600b60009054906101000a900473ffffffffffffffffffffffffffffffffffffffff1673ffffffffffffffffffffffffffffffffffffffff163373ffffffffffffffffffffffffffffffffffffffff1614610d93576040517f08c379a0000000000000000000000000000000000000000000000000000000008152600401610d8a906128c5565b60405180910390fd5b6000610d9d61063b565b11610ddd576040517f08c379a0000000000000000000000000000000000000000000000000000000008152600401610dd490612b5e565b60405180910390fd5b60008111610e20576040517f08c379a0000000000000000000000000000000000000000000000000000000008152600401610e1790612bca565b60405180910390fd5b610e2861063b565b670de0b6b3a764000082610e3c91906127b1565b610e469190612822565b60098190555080600a8190555050565b6000600954670de0b6b3a764000083610e6f91906127b1565b610e799190612822565b9050919050565b83421115610ec557836040517f62791302000000000000000000000000000000000000000000000000000000008152600401610ebc919061230e565b60405180910390fd5b60007f6e71edae12b1b97f4d1f60370fef10105fa2faae0126114a169c64845d6126c9888888610ef48c6117be565b89604051602001610f0a96959493929190612bea565b6040516020818303038152906040528051906020012090506000610f2d82611815565b90506000610f3d8287878761182f565b90508973ffffffffffffffffffffffffffffffffffffffff168173ffffffffffffffffffffffffffffffffffffffff1614610fb157808a6040517f4b800e46000000000000000000000000000000000000000000000000000000008152600401610fa8929190612ae9565b60405180910390fd5b610fbc8a8a8a61110d565b50505050505050505050565b6000600160008473ffffffffffffffffffffffffffffffffffffffff1673ffffffffffffffffffffffffffffffffffffffff16815260200190815260200160002060008373ffffffffffffffffffffffffffffffffffffffff1673ffffffffffffffffffffffffffffffffffffffff16815260200190815260200160002054905092915050565b6000600954905090565b600b60009054906101000a900473ffffffffffffffffffffffffffffffffffffffff1681565b61108761135f565b600073ffffffffffffffffffffffffffffffffffffffff168173ffffffffffffffffffffffffffffffffffffffff16036110f95760006040517f1e4fbdf70000000000000000000000000000000000000000000000000000000081526004016110f091906125cd565b60405180910390fd5b61110281611554565b50565b600033905090565b61111a838383600161185f565b505050565b600061112b8484610fc8565b90507fffffffffffffffffffffffffffffffffffffffffffffffffffffffffffffffff8110156111ae578181101561119e578281836040517ffb8f41b200000000000000000000000000000000000000000000000000000000815260040161119593929190612c4b565b60405180910390fd5b6111ad8484848403600061185f565b5b50505050565b600073ffffffffffffffffffffffffffffffffffffffff168373ffffffffffffffffffffffffffffffffffffffff16036112265760006040517f96c6fd1e00000000000000000000000000000000000000000000000000000000815260040161121d91906125cd565b60405180910390fd5b600073ffffffffffffffffffffffffffffffffffffffff168273ffffffffffffffffffffffffffffffffffffffff16036112985760006040517fec442f0500000000000000000000000000000000000000000000000000000000815260040161128f91906125cd565b60405180910390fd5b6112a3838383611a36565b505050565b60007f000000000000000000000000000000000000000000000000000000000000000073ffffffffffffffffffffffffffffffffffffffff163073ffffffffffffffffffffffffffffffffffffffff1614801561132457507f000000000000000000000000000000000000000000000000000000000000000046145b15611351577f0000000000000000000000000000000000000000000000000000000000000000905061135c565b611359611c5b565b90505b90565b611367611105565b73ffffffffffffffffffffffffffffffffffffffff16611385610a08565b73ffffffffffffffffffffffffffffffffffffffff16146113e4576113a8611105565b6040517f118cdaa70000000000000000000000000000000000000000000000000000000081526004016113db91906125cd565b60405180910390fd5b565b6113ee611cf1565b6000600860146101000a81548160ff0219169083151502179055507f5db9ee0a495bf2e6ff9c91a7834c1ba4fdd244a5e8aa4e537bd38aeae4b073aa611432611105565b60405161143f91906125cd565b60405180910390a1565b61145161083c565b15611488576040517fd93c066500000000000000000000000000000000000000000000000000000000815260040160405180910390fd5b565b600073ffffffffffffffffffffffffffffffffffffffff168273ffffffffffffffffffffffffffffffffffffffff16036114fc5760006040517fec442f050000000000000000000000000000000000000000000000000000000081526004016114f391906125cd565b60405180910390fd5b61150860008383611a36565b5050565b60008060008373ffffffffffffffffffffffffffffffffffffffff1673ffffffffffffffffffffffffffffffffffffffff168152602001908152602001600020549050919050565b6000600860009054906101000a900473ffffffffffffffffffffffffffffffffffffffff16905081600860006101000a81548173ffffffffffffffffffffffffffffffffffffffff021916908373ffffffffffffffffffffffffffffffffffffffff1602179055508173ffffffffffffffffffffffffffffffffffffffff168173ffffffffffffffffffffffffffffffffffffffff167f8be0079c531659141344cd1fd0a4f28419497f9722a3daafe3b4186f6b6457e060405160405180910390a35050565b6000600760008373ffffffffffffffffffffffffffffffffffffffff1673ffffffffffffffffffffffffffffffffffffffff168152602001908152602001600020549050919050565b61166b611449565b6001600860146101000a81548160ff0219169083151502179055507f62e78cea01bee320cd4e420270b5ea74000d11b0c9f74754ebdbfc544b05a2586116af611105565b6040516116bc91906125cd565b60405180910390a1565b60606116fc60057f0000000000000000000000000000000000000000000000000000000000000000611d3190919063ffffffff16565b905090565b606061173760067f0000000000000000000000000000000000000000000000000000000000000000611d3190919063ffffffff16565b905090565b600073ffffffffffffffffffffffffffffffffffffffff168273ffffffffffffffffffffffffffffffffffffffff16036117ae5760006040517f96c6fd1e0000000000000000000000000000000000000000000000000000000081526004016117a591906125cd565b60405180910390fd5b6117ba82600083611a36565b5050565b6000600760008373ffffffffffffffffffffffffffffffffffffffff1673ffffffffffffffffffffffffffffffffffffffff1681526020019081526020016000206000815480929190600101919050559050919050565b60006118286118226112a8565b83611de1565b9050919050565b60008060008061184188888888611e22565b9250925092506118518282611f16565b829350505050949350505050565b600073ffffffffffffffffffffffffffffffffffffffff168473ffffffffffffffffffffffffffffffffffffffff16036118d15760006040517fe602df050000000000000000000000000000000000000000000000000000000081526004016118c891906125cd565b60405180910390fd5b600073ffffffffffffffffffffffffffffffffffffffff168373ffffffffffffffffffffffffffffffffffffffff16036119435760006040517f94280d6200000000000000000000000000000000000000000000000000000000815260040161193a91906125cd565b60405180910390fd5b81600160008673ffffffffffffffffffffffffffffffffffffffff1673ffffffffffffffffffffffffffffffffffffffff16815260200190815260200160002060008573ffffffffffffffffffffffffffffffffffffffff1673ffffffffffffffffffffffffffffffffffffffff168152602001908152602001600020819055508015611a30578273ffffffffffffffffffffffffffffffffffffffff168473ffffffffffffffffffffffffffffffffffffffff167f8c5be1e5ebec7d5bd14f71427d1e84f3dd0314c0f7b2291e5b200ac8c7c3b92584604051611a27919061230e565b60405180910390a35b50505050565b600073ffffffffffffffffffffffffffffffffffffffff168373ffffffffffffffffffffffffffffffffffffffff1603611a88578060026000828254611a7c9190612951565b92505081905550611b5b565b60008060008573ffffffffffffffffffffffffffffffffffffffff1673ffffffffffffffffffffffffffffffffffffffff16815260200190815260200160002054905081811015611b14578381836040517fe450d38c000000000000000000000000000000000000000000000000000000008152600401611b0b93929190612c4b565b60405180910390fd5b8181036000808673ffffffffffffffffffffffffffffffffffffffff1673ffffffffffffffffffffffffffffffffffffffff16815260200190815260200160002081905550505b600073ffffffffffffffffffffffffffffffffffffffff168273ffffffffffffffffffffffffffffffffffffffff1603611ba45780600260008282540392505081905550611bf1565b806000808473ffffffffffffffffffffffffffffffffffffffff1673ffffffffffffffffffffffffffffffffffffffff168152602001908152602001600020600082825401925050819055505b8173ffffffffffffffffffffffffffffffffffffffff168373ffffffffffffffffffffffffffffffffffffffff167fddf252ad1be2c89b69c2b068fc378daa952ba7f163c4a11628f55a4df523b3ef83604051611c4e919061230e565b60405180910390a3505050565b60007f8b73c3c69bb8fe3d512ecc4cf759cc79239f7b179b0ffacaa9a75d522b39400f7f00000000000000000000000000000000000000000000000000000000000000007f00000000000000000000000000000000000000000000000000000000000000004630604051602001611cd6959493929190612c82565b60405160208183030381529060405280519060200120905090565b611cf961083c565b611d2f576040517f8dfc202b00000000000000000000000000000000000000000000000000000000815260040160405180910390fd5b565b606060ff60001b8314611d4e57611d478361207a565b9050611ddb565b818054611d5a90612751565b80601f0160208091040260200160405190810160405280929190818152602001828054611d8690612751565b8015611dd35780601f10611da857610100808354040283529160200191611dd3565b820191906000526020600020905b815481529060010190602001808311611db657829003601f168201915b505050505090505b92915050565b60006040517f190100000000000000000000000000000000000000000000000000000000000081528360028201528260228201526042812091505092915050565b60008060007f7fffffffffffffffffffffffffffffff5d576e7357a4501ddfe92f46681b20a08460001c1115611e62576000600385925092509250611f0c565b600060018888888860405160008152602001604052604051611e879493929190612cd5565b6020604051602081039080840390855afa158015611ea9573d6000803e3d6000fd5b505050602060405103519050600073ffffffffffffffffffffffffffffffffffffffff168173ffffffffffffffffffffffffffffffffffffffff1603611efd57600060016000801b93509350935050611f0c565b8060008060001b935093509350505b9450945094915050565b60006003811115611f2a57611f29612d1a565b5b826003811115611f3d57611f3c612d1a565b5b03156120765760016003811115611f5757611f56612d1a565b5b826003811115611f6a57611f69612d1a565b5b03611fa1576040517ff645eedf00000000000000000000000000000000000000000000000000000000815260040160405180910390fd5b60026003811115611fb557611fb4612d1a565b5b826003811115611fc857611fc7612d1a565b5b0361200d578060001c6040517ffce698f7000000000000000000000000000000000000000000000000000000008152600401612004919061230e565b60405180910390fd5b6003808111156120205761201f612d1a565b5b82600381111561203357612032612d1a565b5b0361207557806040517fd78bce0c00000000000000000000000000000000000000000000000000000000815260040161206c91906123cc565b60405180910390fd5b5b5050565b60606000612087836120ee565b90506000602067ffffffffffffffff8111156120a6576120a5612a1a565b5b6040519080825280601f01601f1916602001820160405280156120d85781602001600182028036833780820191505090505b5090508181528360208201528092505050919050565b60008060ff8360001c169050601f811115612135576040517fb3512b0c00000000000000000000000000000000000000000000000000000000815260040160405180910390fd5b80915050919050565b600081519050919050565b600082825260208201905092915050565b60005b8381101561217857808201518184015260208101905061215d565b60008484015250505050565b6000601f19601f8301169050919050565b60006121a08261213e565b6121aa8185612149565b93506121ba81856020860161215a565b6121c381612184565b840191505092915050565b600060208201905081810360008301526121e88184612195565b905092915050565b600080fd5b600073ffffffffffffffffffffffffffffffffffffffff82169050919050565b6000612220826121f5565b9050919050565b61223081612215565b811461223b57600080fd5b50565b60008135905061224d81612227565b92915050565b6000819050919050565b61226681612253565b811461227157600080fd5b50565b6000813590506122838161225d565b92915050565b600080604083850312156122a05761229f6121f0565b5b60006122ae8582860161223e565b92505060206122bf85828601612274565b9150509250929050565b60008115159050919050565b6122de816122c9565b82525050565b60006020820190506122f960008301846122d5565b92915050565b61230881612253565b82525050565b600060208201905061232360008301846122ff565b92915050565b600080600060608486031215612342576123416121f0565b5b60006123508682870161223e565b93505060206123618682870161223e565b925050604061237286828701612274565b9150509250925092565b600060ff82169050919050565b6123928161237c565b82525050565b60006020820190506123ad6000830184612389565b92915050565b6000819050919050565b6123c6816123b3565b82525050565b60006020820190506123e160008301846123bd565b92915050565b6000602082840312156123fd576123fc6121f0565b5b600061240b84828501612274565b91505092915050565b60006020828403121561242a576124296121f0565b5b60006124388482850161223e565b91505092915050565b60007fff0000000000000000000000000000000000000000000000000000000000000082169050919050565b61247681612441565b82525050565b61248581612215565b82525050565b600081519050919050565b600082825260208201905092915050565b6000819050602082019050919050565b6124c081612253565b82525050565b60006124d283836124b7565b60208301905092915050565b6000602082019050919050565b60006124f68261248b565b6125008185612496565b935061250b836124a7565b8060005b8381101561253c57815161252388826124c6565b975061252e836124de565b92505060018101905061250f565b5085935050505092915050565b600060e08201905061255e600083018a61246d565b81810360208301526125708189612195565b905081810360408301526125848188612195565b905061259360608301876122ff565b6125a0608083018661247c565b6125ad60a08301856123bd565b81810360c08301526125bf81846124eb565b905098975050505050505050565b60006020820190506125e2600083018461247c565b92915050565b6125f18161237c565b81146125fc57600080fd5b50565b60008135905061260e816125e8565b92915050565b61261d816123b3565b811461262857600080fd5b50565b60008135905061263a81612614565b92915050565b600080600080600080600060e0888a03121561265f5761265e6121f0565b5b600061266d8a828b0161223e565b975050602061267e8a828b0161223e565b965050604061268f8a828b01612274565b95505060606126a08a828b01612274565b94505060806126b18a828b016125ff565b93505060a06126c28a828b0161262b565b92505060c06126d38a828b0161262b565b91505092959891949750929550565b600080604083850312156126f9576126f86121f0565b5b60006127078582860161223e565b92505060206127188582860161223e565b9150509250929050565b7f4e487b7100000000000000000000000000000000000000000000000000000000600052602260045260246000fd5b6000600282049050600182168061276957607f821691505b60208210810361277c5761277b612722565b5b50919050565b7f4e487b7100000000000000000000000000000000000000000000000000000000600052601160045260246000fd5b60006127bc82612253565b91506127c783612253565b92508282026127d581612253565b915082820484148315176127ec576127eb612782565b5b5092915050565b7f4e487b7100000000000000000000000000000000000000000000000000000000600052601260045260246000fd5b600061282d82612253565b915061283883612253565b925082612848576128476127f3565b5b828204905092915050565b7f43616c6c6572206973206e6f7420746865207374616b696e6720636f6e74726160008201527f6374000000000000000000000000000000000000000000000000000000000000602082015250565b60006128af602283612149565b91506128ba82612853565b604082019050919050565b600060208201905081810360008301526128de816128a2565b9050919050565b7f43616e6e6f74206d696e7420746f207a65726f20616464726573730000000000600082015250565b600061291b601b83612149565b9150612926826128e5565b602082019050919050565b6000602082019050818103600083015261294a8161290e565b9050919050565b600061295c82612253565b915061296783612253565b925082820190508082111561297f5761297e612782565b5b92915050565b7f5363616c696e6720666163746f72206d75737420626520706f73697469766500600082015250565b60006129bb601f83612149565b91506129c682612985565b602082019050919050565b600060208201905081810360008301526129ea816129ae565b9050919050565b6000604082019050612a0660008301856122ff565b612a1360208301846122ff565b9392505050565b7f4e487b7100000000000000000000000000000000000000000000000000000000600052604160045260246000fd5b6000612a5482612253565b9150612a5f83612253565b9250828203905081811115612a7757612a76612782565b5b92915050565b7f496e76616c696420616464726573730000000000000000000000000000000000600082015250565b6000612ab3600f83612149565b9150612abe82612a7d565b602082019050919050565b60006020820190508181036000830152612ae281612aa6565b9050919050565b6000604082019050612afe600083018561247c565b612b0b602083018461247c565b9392505050565b7f43616e6e6f74207265626173652077697468207a65726f20737570706c790000600082015250565b6000612b48601e83612149565b9150612b5382612b12565b602082019050919050565b60006020820190508181036000830152612b7781612b3b565b9050919050565b7f4e657720746f74616c206d75737420626520706f736974697665000000000000600082015250565b6000612bb4601a83612149565b9150612bbf82612b7e565b602082019050919050565b60006020820190508181036000830152612be381612ba7565b9050919050565b600060c082019050612bff60008301896123bd565b612c0c602083018861247c565b612c19604083018761247c565b612c2660608301866122ff565b612c3360808301856122ff565b612c4060a08301846122ff565b979650505050505050565b6000606082019050612c60600083018661247c565b612c6d60208301856122ff565b612c7a60408301846122ff565b949350505050565b600060a082019050612c9760008301886123bd565b612ca460208301876123bd565b612cb160408301866123bd565b612cbe60608301856122ff565b612ccb608083018461247c565b9695505050505050565b6000608082019050612cea60008301876123bd565b612cf76020830186612389565b612d0460408301856123bd565b612d1160608301846123bd565b95945050505050565b7f4e487b7100000000000000000000000000000000000000000000000000000000600052602160045260246000fdfea26469706673582212204bdd6659e8574740dacba98400b353d9c9bf51948dea444b60f68f7d127f3a3464736f6c634300081c0033",
  "linkReferences": {},
  "deployedLinkReferences": {}
}